:020000040000fa
:080000000001040000000000f3
:020000040000fa
:0400080008020000ea
:020000040000fa
:04000c004a020000a4
:020000040000fa
:040010008a02000060
:020000040000fa
:0400140028020000be
:020000040000fa
:040018006a02000078
:020000040000fa
:04001c00e0020000fe
:020000040000fa
:04002000e0020000fa
:020000040000fa
:04002400e0020000f6
:020000040000fa
:04002800e0020000f2
:020000040000fa
:04002c00e0020000ee
:020000040000fa
:04003000e0020000ea
:020000040000fa
:04003400e0020000e6
:020000040000fa
:04003800e0020000e2
:020000040000fa
:04003c00e0020000de
:020000040000fa
:04004000e0020000da
:020000040000fa
:04004400aa0200000c
:020000040000fa
:04004800e0020000d2
:020000040000fa
:04004c00e0020000ce
:020000040000fa
:04005000e0020000ca
:020000040000fa
:04005400e0020000c6
:020000040000fa
:04005800e0020000c2
:020000040000fa
:04005c00e0020000be
:020000040000fa
:04006000e0020000ba
:020000040000fa
:04006400e0020000b6
:020000040000fa
:04006800e0020000b2
:020000040000fa
:04006c00e0020000ae
:020000040000fa
:04007000e0020000aa
:020000040000fa
:04007400e0020000a6
:020000040000fa
:04007800e0020000a2
:020000040000fa
:04007c00e00200009e
:020000040000fa
:04008000e00200009a
:020000040000fa
:04008400e002000096
:020000040000fa
:04008800e002000092
:020000040000fa
:04008c00e00200008e
:020000040000fa
:04009000e00200008a
:020000040000fa
:04009400e002000086
:020000040000fa
:04009800e002000082
:020000040000fa
:04009c00e00200007e
:020000040000fa
:0400a000e00200007a
:020000040000fa
:0400a400e002000076
:020000040000fa
:0400a800e002000072
:020000040000fa
:0400ac00e00200006e
:020000040000fa
:0400b000e00200006a
:020000040000fa
:0400b400e002000066
:020000040000fa
:0400b800e002000062
:020000040000fa
:0400bc00e00200005e
:020000040000fa
:0400c000e00200005a
:020000040000fa
:0400c400e002000056
:020000040000fa
:0400c800e002000052
:020000040000fa
:0400cc00e00200004e
:020000040000fa
:0400d000e00200004a
:020000040000fa
:0400d400e002000046
:020000040000fa
:0400d800e002000042
:020000040000fa
:0400dc00e00200003e
:020000040000fa
:0400e000e00200003a
:020000040000fa
:0400e400e002000036
:020000040000fa
:0400e800e002000032
:020000040000fa
:0400ec00e00200002e
:020000040000fa
:0400f000e00200002a
:020000040000fa
:0400f400e002000026
:020000040000fa
:0400f800e002000022
:020000040000fa
:0400fc00e00200001e
:020000040000fa
:04010000e002000019
:020000040000fa
:04010400e002000015
:020000040000fa
:04010800e002000011
:020000040000fa
:04010c00e00200000d
:020000040000fa
:04011000e002000009
:020000040000fa
:04011400e002000005
:020000040000fa
:04011800e002000001
:020000040000fa
:04011c00e0020000fd
:020000040000fa
:04012000e0020000f9
:020000040000fa
:04012400e0020000f5
:020000040000fa
:04012800e0020000f1
:020000040000fa
:04012c00e0020000ed
:020000040000fa
:04013000e0020000e9
:020000040000fa
:04013400e0020000e5
:020000040000fa
:04013800e0020000e1
:020000040000fa
:04013c00e0020000dd
:020000040000fa
:04014000e0020000d9
:020000040000fa
:04014400e0020000d5
:020000040000fa
:04014800e0020000d1
:020000040000fa
:04014c00e0020000cd
:020000040000fa
:04015000e0020000c9
:020000040000fa
:04015400e0020000c5
:020000040000fa
:04015800e0020000c1
:020000040000fa
:04015c00e0020000bd
:020000040000fa
:04016000e0020000b9
:020000040000fa
:04016400e0020000b5
:020000040000fa
:04016800e0020000b1
:020000040000fa
:04016c00e0020000ad
:020000040000fa
:04017000e0020000a9
:020000040000fa
:04017400e0020000a5
:020000040000fa
:04017800e0020000a1
:020000040000fa
:04017c00e00200009d
:020000040000fa
:04018000e002000099
:020000040000fa
:04018400e002000095
:020000040000fa
:04018800e002000091
:020000040000fa
:04018c00e00200008d
:020000040000fa
:04019000e002000089
:020000040000fa
:04019400e002000085
:020000040000fa
:04019800e002000081
:020000040000fa
:04019c00e00200007d
:020000040000fa
:0401a000e002000079
:020000040000fa
:0401a400e002000075
:020000040000fa
:0401a800e002000071
:020000040000fa
:0401ac00e00200006d
:020000040000fa
:0401b000e002000069
:020000040000fa
:0401b400e002000065
:020000040000fa
:0401b800e002000061
:020000040000fa
:0401bc00e00200005d
:020000040000fa
:0401c000e002000059
:020000040000fa
:0401c400e002000055
:020000040000fa
:0401c800e002000051
:020000040000fa
:0401cc00e00200004d
:020000040000fa
:0401d000e002000049
:020000040000fa
:0401d400e002000045
:020000040000fa
:0401d800e002000041
:020000040000fa
:0401dc00e00200003d
:020000040000fa
:0401e000e002000039
:020000040000fa
:0401e400e002000035
:020000040000fa
:0401e800e002000031
:020000040000fa
:0401ec00e00200002d
:020000040000fa
:0401f000e002000029
:020000040000fa
:0401f400e002000025
:020000040000fa
:0401f800e002000021
:020000040000fa
:0401fc00e00200001d
:020000040000fa
:100200008f8320000e7f24000e0188000000000074
:10021000000020000000e000020032000001200089
:100220002002880014000700e70007000000e0003b
:1002300003003a00204d200001002000020037009a
:100240000000200001002000810f7000010032003a
:1002500014000700000020000000e000020032004f
:100260000000020000000000e203020000000000a5
:100270000040da000000fe004440a90020002000f9
:100280000000e00003003200100020009001880010
:100290004440a800000006008a1f78008b1f7800e9
:1002a00000000600a1028800800478000000eb0036
:1002b0001f003700e284440054a0b4009905ba003e
:1002c000e284440054a0b4009906ba00e2844400d9
:1002d00054a0b4000006eb00476fde00fd07b2003b
:1002e000ae018800636ce10003003a00eaff0700fa
:1002f0000000eb000e003700606ce10008003a00df
:10030000004deb000a05e800020039003420ec0043
:100310000af0a0008b05e900f9ff3e000400370059
:100320006168e100010032000086eb000b0007006d
:1003300019c7ba001905ba000e04e00003003a001c
:100340000a00e000dbff3a0000000600fe07b200f2
:10035000ae0288008a047800f5ff37000cd0a300b5
:10036000e20f4d001c00390089027800354dba00bb
:100370000a05e800020039003420ec000af0a00071
:100380008b05e9000f003200254dba000a05e80090
:10039000020039003420ec000af0a0008b05e900cf
:1003a000080032000c00e0000600320015cdba0053
:1003b0000a05e800020039003420ec000af0a00031
:1003c0008b05e9008984e80054a0b4000b00e0002c
:1003d000e2ff3a00000006009902ba00055d7800cd
:1003e0008b05e900f7ff3200c82ade00055d7800c2
:1003f0008b05e900f3ff32000c00e000f1ff320052
:1004000019ddba00eeff37005e03040000000000b3
:100410003600f800809fbe00829fbe00849fbe0011
:10042000869fbe000000fa008020a9000000eb00bb
:100430006d0107000080fa004f03be004f02be00ae
:100440004f01be004f00be003600f900004006001c
:100450003600f800809fbe00829fbe00849fbe00d1
:10046000869fbe000000fa00640107008040a900da
:10047000100020005c0107000080fa004f03be005e
:100480004f02be004f01be004f00be003600f90013
:10049000004006003600f800809fbe00829fbe002c
:1004a000849fbe00869fbe000000fa008060a90005
:1004b000200020004c0107000080fa004f03be001e
:1004c0004f02be004f01be004f00be003600f900d3
:1004d000004006003600f800809fbe00829fbe00ec
:1004e000849fbe00869fbe000000fa008080a900a5
:1004f000300020003c0107000080fa004f03be00de
:100500004f02be004f01be004f00be003600f90092
:10051000004006003600f800809fbe00829fbe00ab
:10052000849fbe00869fbe000000fa008600a900de
:10053000700020002c0107000080fa004f03be006d
:100540004f02be004f01be004f00be003600f90052
:10055000004006003600f800809fbe00829fbe006b
:10056000849fbe00869fbe000000fa00704080009d
:100570000000e00002003200704080000000010036
:1005800070832000104078008040e80070832000d5
:10059000014878006083200011c0b3000148780052
:1005a00088e0a9000080fa004f03be004f02be00a1
:1005b0004f01be004f00be003600f90000400600ab
:1005c0000040da000000fe00000005006022b800d4
:1005d000060220000000d0008180d2000482d200f8
:1005e0008582d2000000a0000202520083825a00dd
:1005f000030031000202420083824a000000a10091
:0c0600000603e900f3ff3a0000000600ca
:020000040000fa
:10060c000000fa009621ef00f03f2000e00c88007b
:10061c0000002800000d8800704080000000e00001
:10062c0002003a00e03520003600070088e0a900ff
:10063c0098e0a800608320008040eb00014878001f
:10064c000080fa00000006000200fa00000f78009b
:10065c009e007800e10c8800608320008040eb0055
:10066c00014878000080fa00000006000000fa0043
:10067c00e00c80000080fa00000006000200fa0086
:10068c00000f78009e007800b10c88006083200079
:10069c008040eb00014878000080fa000000060062
:1006ac000000fa00b00c80000080fa000000060088
:1006bc000000fa00804080000000e80080408800c4
:1006cc0013c8bf00f04f500009003a0012c8bf0019
:1006dc000004e00004003a007a06a80010c0b30041
:1006ec0012e8b700020037007a06a9001268ef0082
:1006fc0013c8bf000040e80013e8b7000080fa0000
:10070c00000006000200fa00000f780098e0a90033
:10071c009e0078007140880098e0a8000080fa00e4
:10072c00000006000000fa00608320008040eb000f
:10073c000148780098e0a800a1e1a8000080fa0028
:10074c00000006000000fa00a1e1a90098e0a90051
:10075c000080fa00000006000200fa00608320000e
:10076c00104f78001e4078000004e00003003200b7
:10077c00608320008040eb00014878001e40780028
:10078c000080fa00000006000000fa0070832000d0
:10079c00104078000080fb000080fa00000006008a
:1007ac000000fa00708320008040eb0001487800c4
:1007bc000080fa00000006000000fa00881f780094
:1007cc009a000700d7ff0700010037000000000067
:1007dc00c03380000000d100614060000be8b7001e
:1007ec000bc8bf00e14f50000c003a000ac8bf0014
:1007fc000004e00005003a001028ef000000eb00b8
:10080c009eff070010c0b3000ae8b70060408000ec
:10081c000000e80060408800edff37000ac8bf0008
:10082c00e14f5000e9ff3a00804080004804dd00b1
:10083c009bff0700000044008000eb001040880084
:10084c00214088001040800021408000a20320003d
:10085c00030020005aff0700304088004140880008
:10086c0030408000414080000040780000c0ea0029
:10087c0000e8b700018020009140780080ccb300e4
:10088c0080cf5000020036007a86a90001003700a4
:10089c007a86a8000a68ef00cdff37000000fa0046
:1008ac0000002300100888000621ef006821ef00eb
:1008bc006a21ef000821ef0000702000500888002a
:1008cc000c21ef000e21ef007821ef007a21ef00d0
:1008dc007c21ef007e21ef008021ef008221ef00d0
:1008ec008421ef008621ef000001eb00800720003f
:1008fc00a10920001310200080497800814978005c
:10090c00824978000001eb00600420007105200092
:10091c0003102000804978008149780082497800d2
:10092c000080fa00000006000000fa0000402000e1
:10093c00303388007a26ef008e26ef0070f92700fe
:10094c0010338800e0fe2f00b0338800f03f200009
:10095c00503488007426ef008826ef009c26ef00a8
:10096c007226ef008626ef009a26ef006826ef002d
:10097c007c26ef009026ef0070002000503388009a
:10098c00c0202f00f0338800f00020009034880045
:08099c000080fa0000000600d3
:020000040000fa
:1009a4001608000020000000800000001408000069
:1009b4000200000082000000ffff00003608000073
:1009c40002000000800000000e0800000600000085
:1009d40080000000000800000e00000080000000fd
:0409e400000000000f
:020000040000fa
:1009e8000200fa00000f78009e007800a1408800fd
:1009f800ffff37000000fa006081200080077800c0
:100a0800e0822000000188000080fa000000060053
:100a18000000fa0051058000f0ff28000080600007
:100a280000c0a000500588000080fa000000060001
:100a38000000fa00bdff0700f5ff070098ff070058
:0c0a4800f0fe07000080fa00000006002d
:020000040000fa
:020000040002f8
:04be0000ffffff0041
:020000040000fa
:020000040002f8
:04be2000ffffff0021
:020000040000fa
:020000040002f8
:04be300078ffff0098
:020000040000fa
:020000040002f8
:04be3800b7ffff0051
:020000040000fa
:020000040002f8
:04be40009fffff0061
:020000040000fa
:020000040002f8
:04be4800ffffff00f9
:020000040000fa
:020000040002f8
:04be5000deffff0012
:020000040000fa
:020000040002f8
:04be5800ffffff00e9
:00000001FF
